:100000000C9434000C9451000C9451000C94510049
:100010000C9451000C9451000C9451000C9451001C
:100020000C9451000C9451000C9451000C9451000C
:100030000C9451000C9451000C9451000C945100FC
:100040000C9451000C9451000C9451000C945100EC
:100050000C9451000C9406030C9451000C94510024
:100060000C9451000C94510011241FBECFEFD8E026
:10007000DEBFCDBF12E0A0E0B1E0E4E1FFE002C0EE
:1000800005900D92A638B107D9F722E0A6E8B2E0B4
:1000900001C01D92AF38B207E1F70E949B030C9498
:1000A00088070C9400009B01AC011092B90060E03D
:1000B00074E284EF90E00E947C04DA01C901409769
:1000C000A109B109B695A795979587958093B80032
:1000D00008951092BC0094EA9093BC009091BC00EB
:1000E00097FFFCCF9091B900987F983011F0903134
:1000F000A1F4880F682B6093BB0084E88093BC0058
:100100008091BC0087FFFCCF8091B900887F883147
:1001100031F0803421F084E108958AE0089580E090
:100120000895880F682B84EA24E834E98093BC00A2
:100130009091BC0097FFFCCF9091B900987F9830C8
:1001400011F0903199F76093BB002093BC0090911F
:10015000BC0097FFFCCF9091B900987F903211F0CE
:10016000983539F43093BC009091BC0094FDFCCFDD
:10017000DDCF80E008958093BB0084E88093BC00CD
:100180008091BC0087FFFCCF8091B900887F8832C6
:1001900011F480E0089585E1089584EC8093BC001B
:1001A0008091BC0087FFFCCF8091BB00089584E85C
:1001B0008093BC008091BC0087FFFCCF8091BB0086
:1001C0000895EF92FF920F931F93CF93DF937B01DC
:1001D0008A0160E00E946900811110C0E7010E0DE4
:1001E0001F1DC017D10731F089910E94BB008823E1
:1001F000C1F304C084E98093BC0080E0DF91CF911B
:100200001F910F91FF90EF900895CF93C62F60E05C
:100210000E946900811109C08C2F0E94BB008111CE
:1002200004C084E98093BC0080E0CF910895CF9210
:10023000DF92EF92FF920F931F93CF93DF937B0197
:100240008A0161E00E946900811118C06701E8011C
:100250002197C6018E199F098C179D0730F40E94C3
:10026000CD00F60181936F01F4CFCE0DDF1D0E940A
:10027000D700888384E98093BC0080E0DF91CF9130
:100280001F910F91FF90EF90DF90CF90089584E938
:100290008093BC0008958A508D3048F4E82FF0E038
:1002A000EE0FFF1FEC5EFE4F80819181089582E387
:1002B00091E00895FC019381692B80810C940501E4
:1002C00028E0FC01238360E00C945A01FC011382B6
:1002D00060E00C945A010F931F93CF938C01C62FAB
:1002E00064600E945A018AE08A95F1F700C06C2F81
:1002F0006B7FC8010E945A0187EC90E00197F1F7EB
:1003000000C00000CF911F910F9108951F93CF93CC
:10031000DF93EC01162F0E945A01612FCE01DF916D
:10032000CF911F910C946B010F931F93CF93DF9389
:100330008C01C62FD42F607F642B0E94860180E140
:10034000C89FB00111246D2BC801DF91CF911F917F
:100350000F910C9486010F931F93CF93DF938C0121
:10036000EB016991662329F041E0C8010E949401E4
:10037000F8CFDF91CF911F910F91089540E00C9439
:1003800094010F931F93CF93DF9300D000D0CDB78C
:10039000DEB700912E0110912F0120913001309194
:1003A000310109831A832B833C83FE01E60FF11D83
:1003B0002181642F620F60680F900F900F900F9053
:1003C000DF91CF911F910F910C94BE01CF93DF93DA
:1003D000EC0161E00E94BE018FE39FE10197F1F71C
:1003E00000C0000040E060E0CE01DF91CF910C94AE
:1003F000C10162E00E94BE018FE39FE10197F1F726
:1004000000C000000895FC016581262F246025832B
:100410006C600C94BE01FC0165816B7F6583686034
:100420000C94BE01FC016581262F226025836A6041
:100430000C94BE01FC0165816D7F658368600C943E
:10044000BE01FC016581262F2160258369600C9423
:10045000BE01FC0165816E7F658368600C94BE01FE
:1004600068E10C94BE016CE10C94BE01FC01668154
:10047000262F2260268366600C94BE01FC016681F3
:100480006D7F668364600C94BE01FC016681262F3B
:100490002160268365600C94BE01FC0166816E7F3D
:1004A000668364600C94BE01EF92FF920F931F93DA
:1004B000CF93DF938C017A01677088E0689FB00169
:1004C00011246064C8010E94BE01E70188E0E80EC3
:1004D000F11C699141E0C8010E949401CE15DF052D
:1004E000C1F7DF91CF911F910F91FF90EF90089589
:1004F000CF93DF93CDB7DEB72E970FB6F894DEBF5C
:100500000FBECDBF888769874A871B862C8784E00A
:100510008D8782E08E87423018F0822F88608C872A
:10052000222329F0413019F48C8584608C872FEFC9
:1005300081EE94E0215080409040E1F700C000003F
:1005400060E0CE0108960E945A012FEF83ED90E300
:10055000215080409040E1F700C0000060E3CE01F0
:1005600008960E945A018FE496E40197F1F700C0C3
:10057000000060E3CE0108960E9486018FE496E4B5
:100580000197F1F700C0000060E3CE0108960E94D9
:10059000860187E592E00197F1F700C0000060E274
:1005A000CE0108960E9486016C856062CE01089695
:1005B0000E94BE01CE0108960E940302CE01089659
:1005C0000E94E6016E856460CE0108960E94BE011D
:1005D000CE0108960E94F90187E0FE013896DE01FF
:1005E000119601900D928A95E1F729813A814B810C
:1005F0005C816D817E818F8190E02E960FB6F8949C
:10060000DEBF0FBECDBFDF91CF9108951F920F9235
:100610000FB60F9211240F900FBE0F901F901895D8
:10062000E4E6F0E080818E7F8083ECE7F0E080817B
:10063000816C8083EAE7F0E080818C6C8083089590
:1006400008950895EF92FF920F931F93CF93DF9336
:1006500095B19F6095B940E050E0C1E0D0E09AB11B
:100660009E01042E02C0220F331F0A94E2F7790183
:1006700034E0EE0CFF1C3A95E1F79E299AB99BB144
:100680002295207F209592239BB98A010C5F1E4FF3
:10069000A0E0B0E063B170E00A2E02C075956795E6
:1006A0000A94E2F760FD02C0F801808111960C5FA8
:1006B0001F4FA430B10571F79BB1EE2DE92BEBB9BB
:1006C0009AB129232AB94F5F5F4F4430510539F65B
:1006D000DF91CF911F910F91FF90EF90089520E04F
:1006E00044E064E187E20E9478022093880230931C
:1006F000890240938A0250938B0260938C0270931C
:100700008D0280938E0288E892E00C9460018091C3
:100710007A00806480937A0080917A0086FDFCCF15
:10072000809178002091790090E0922B909387023D
:10073000809386020895CF93DF93CDB7DEB72897D5
:100740000FB6F894DEBF0FBECDBF0E9410030E940B
:100750006F0384B1807F84B9389A8AB18F618AB976
:100760007894F12C8E010F5F1F4F93E8692E92E071
:10077000792E442443944E0129E0820E911C0E945C
:1007800087038091860290918702F1102DC0883EE8
:100790009340A0F4409A40E060E088E892E00E9434
:1007A000C10162E272E088E892E00E94AB0140E0A1
:1007B00061E088E892E00E94C1019BC040E060E0F7
:1007C00088E892E00E94C10162E372E088E892E06A
:1007D0000E94AB01FFEF2DE282E2F1502040804009
:1007E000E1F700C00000CBCF512C8FEF0E94220315
:1007F0008F3F09F47BC08E3F09F04EC019821A82E8
:100800001B821C82FE0135967F0180E0A82E81E0CC
:10081000B82E6801F70191917F01F50181915F0187
:100820009817C1F040E060E088E892E00E94C101C2
:1008300060E472E088E892E00E94AB0188E892E010
:100840000E94E60160E572E088E892E00E94AB0158
:10085000512C02C0F6014082FFEFCF1ADF0AE814E4
:10086000F904C1F68981813009F040C08A81813064
:10087000E9F58B818130D1F58C818130B9F56FE557
:1008800072E088E892E00E94AB0188E892E00E9462
:10089000E6014098F12C73CFE5E0F0E0EC0FFD1F8E
:1008A000E50DF11D80831F928F937F926F921F93AE
:1008B0000F930E949E04452D61E088E892E00E941B
:1008C000C101B80188E892E00E94AB0153942FEF78
:1008D00084E39CE0215080409040E1F700C000009C
:1008E0000F900F900F900F900F900F90EAE05E1214
:1008F0007CCFFF24F39443CFA1E21A2EAA1BBB1B8B
:10090000FD010DC0AA1FBB1FEE1FFF1FA217B307DB
:10091000E407F50720F0A21BB30BE40BF50B661FF1
:10092000771F881F991F1A9469F7609570958095B5
:1009300090959B01AC01BD01CF010895AEE0B0E000
:10094000E4EAF4E00C945F070D891E8986E08C834D
:100950001A8309838FEF9FE79E838D83AE01475EE5
:100960005F4F6F89788DCE0101960E94C004EF81A0
:10097000F885E00FF11F10822E96E4E00C947B07BF
:10098000ABE0B0E0E6ECF4E00C9451076C017B01C5
:100990008A01FC0117821682838181FFCCC1CE01BE
:1009A00001963C01F6019381F70193FD859193FF38
:1009B00081917F01882309F4BAC1853239F493FD0E
:1009C000859193FF81917F01853229F4B60190E0F2
:1009D0000E94B706E7CF912C212C312CFFE1F315B3
:1009E000D8F08B3279F038F4803279F08332A1F488
:1009F000232D20611DC08D3261F0803369F4232DD9
:100A0000216016C0832D8260382EE32DE4603E2ED7
:100A10002AC0F32DF8601DC037FC2DC020ED280F33
:100A20002A3040F08E32B9F436FC81C1232D206487
:100A3000322E19C036FE06C08AE0989E200D112481
:100A4000922E11C0EAE02E9E200D1124222EF32DAD
:100A5000F0623F2E08C08C3621F4832D8068382E3A
:100A600002C0883641F4F70193FD859193FF81918F
:100A70007F018111B3CF982F9F7D9554933028F437
:100A80000C5F1F4F9FE399830DC0833631F083378E
:100A900071F0833509F059C021C0F8018081898344
:100AA0000E5F1F4F88248394912C530113C028019B
:100AB000F2E04F0E511CF801A080B18036FE03C059
:100AC000692D70E002C06FEF7FEFC5010E94AC0698
:100AD0004C018201F32DFF773F2E16C0280122E042
:100AE000420E511CF801A080B18036FE03C0692D72
:100AF00070E002C06FEF7FEFC5010E94A1064C01BC
:100B0000F32DF0683F2E820133FC1BC0822D90E054
:100B100088169906B0F4B60180E290E00E94B7060C
:100B20002A94F4CFF50137FC859137FE81915F015E
:100B3000B60190E00E94B70621102A9421E0821AA3
:100B400091088114910471F7E8C0843611F0893658
:100B500041F5F80137FE07C0608171818281938180
:100B60000C5F1F4F08C060817181072E000C880B3D
:100B7000990B0E5F1F4FF32DFF763F2E97FF09C095
:100B800090958095709561957F4F8F4F9F4FF0683E
:100B90003F2E2AE030E0A3010E94F306882E86183B
:100BA00045C0853731F4232D2F7EB22E2AE030E068
:100BB00025C0932D997FB92E8F36C1F018F4883552
:100BC00079F0B5C0803719F0883721F0B0C0E92F2F
:100BD000E061BE2EB4FE0DC0FB2DF460BF2E09C037
:100BE00034FE0AC0292F2660B22E06C028E030E06D
:100BF00005C020E130E002C020E132E0F801B7FE9C
:100C000007C060817181828193810C5F1F4F06C094
:100C10006081718180E090E00E5F1F4FA3010E9410
:100C2000F306882E8618FB2DFF773F2E36FE0DC06B
:100C3000232D2E7FA22E891458F434FE0BC032FCD3
:100C400009C0832D8E7EA82E05C0B82CA32C03C00E
:100C5000B82C01C0B92CA4FE0FC0FE01E80DF11D97
:100C60008081803321F49A2D997EA92E09C0A2FE9D
:100C700006C0B394B39404C08A2D867809F0B39467
:100C8000A3FC11C0A0FE06C0B21488F4280C922C5C
:100C90009B180EC0B21460F4B60180E290E00E948E
:100CA000B706B394F7CFB21418F42B1802C0982CDF
:100CB000212CA4FE10C0B60180E390E00E94B7068C
:100CC000A2FE17C0A1FC03C088E790E002C088E53F
:100CD00090E0B6010CC08A2D867859F0A1FE02C0C2
:100CE0008BE201C080E2A7FC8DE2B60190E00E9499
:100CF000B706891438F4B60180E390E00E94B70685
:100D00009A94F7CF8A94F301E80DF11D8081B60122
:100D100090E00E94B7068110F5CF222009F442CE60
:100D2000B60180E290E00E94B7062A94F6CFF60161
:100D30008681978102C08FEF9FEF2B96E2E10C94A2
:100D40006D07FC010590615070400110D8F7809547
:100D500090958E0F9F1F0895FC0161507040019087
:100D60000110D8F7809590958E0F9F1F08950F93CF
:100D70001F93CF93DF93FB01238121FD03C08FEFEE
:100D80009FEF2CC022FF16C04681578124813581F8
:100D90004217530744F4A081B1819D012F5F3F4F5B
:100DA000318320838C93268137812F5F3F4F378398
:100DB000268314C08B01EC01FB010084F185E02D3A
:100DC0000995892BE1F6D80116968D919C9117977C
:100DD000019617969C938E931697CE01DF91CF9133
:100DE0001F910F910895FA01AA27283051F120315F
:100DF00081F1E8946F936E7F6E5F7F4F8F4F9F4FAF
:100E0000AF4FB1E03ED0B4E03CD0670F781F891FF0
:100E10009A1FA11D680F791F8A1F911DA11D6A0FBE
:100E2000711D811D911DA11D20D009F468943F9171
:100E30002AE0269F11243019305D3193DEF6CF0170
:100E40000895462F4770405D4193B3E00FD0C9F736
:100E5000F6CF462F4F70405D4A3318F0495D31FDA3
:100E60004052419302D0A9F7EACFB4E0A6959795F6
:100E7000879577956795BA95C9F7009761057105CC
:100E800008959B01AC010A2E069457954795379516
:100E90002795BA95C9F7620F731F841F951FA01D70
:100EA00008952F923F924F925F926F927F928F920E
:100EB0009F92AF92BF92CF92DF92EF92FF920F93E9
:100EC0001F93CF93DF93CDB7DEB7CA1BDB0B0FB6F3
:100ED000F894DEBF0FBECDBF09942A8839884888B0
:100EE0005F846E847D848C849B84AA84B984C88446
:100EF000DF80EE80FD800C811B81AA81B981CE0F3D
:100F0000D11D0FB6F894DEBF0FBECDBFED01089521
:040F1000F894FFCF83
:100F140002050506010407FE02050800030609FF91
:100F2400FFFFFFFF50013201320132013201320171
:100F340032013201320132017A01BC01F501004073
:100F44001454556E6B6E6F776E204932435F535461
:100F5400415455535F4552524F5220636F646500AC
:100F6400536C61766520646576696365206E6F7481
:100F74002061636365707465642053544152542046
:100F8400636F6E646974696F6E00536C617665207B
:100F9400646576696365206E6F742061636B6E6F40
:100FA400776C65646765642057524954452028541A
:100FB40052414E534D495429206F722052454144A9
:100FC40020636F6E646974696F6E7300536C61762D
:100FD4006520646576696365206E6F742061636B58
:100FE4006E6F776C65646765642057524954452079
:100FF400285452414E534D49542920636F6E6469FD
:1010040074696F6E00536C617665206465766963FC
:1010140065206E6F742061636B6E6F776C656467B7
:101024006564205245414420636F6E646974696F3E
:101034006E00496E746572666572656E6365212122
:1010440021004D6F6E69746F72696E672E2E2E00CB
:1010540050617373636F64652077726F6E672100EC
:10106400496E70757420616761696E2E2E2E005072
:10107400617373636F646520636F72726563742E4A
:1010840020526573657474696E672064657669635C
:06109400652E0025750029
:00000001FF
